{
  "contractName": "Music",
  "abi": [
    {
      "anonymous": false,
      "inputs": [
        {
          "indexed": false,
          "internalType": "uint256",
          "name": "id",
          "type": "uint256"
        },
        {
          "indexed": false,
          "internalType": "string",
          "name": "musicHash",
          "type": "string"
        },
        {
          "indexed": false,
          "internalType": "string",
          "name": "artistName",
          "type": "string"
        },
        {
          "indexed": false,
          "internalType": "string",
          "name": "songName",
          "type": "string"
        },
        {
          "indexed": false,
          "internalType": "string",
          "name": "albumName",
          "type": "string"
        },
        {
          "indexed": false,
          "internalType": "uint256",
          "name": "releaseDate",
          "type": "uint256"
        },
        {
          "indexed": false,
          "internalType": "string",
          "name": "songLength",
          "type": "string"
        },
        {
          "indexed": false,
          "internalType": "string",
          "name": "lyrics",
          "type": "string"
        },
        {
          "indexed": false,
          "internalType": "string",
          "name": "genre",
          "type": "string"
        },
        {
          "indexed": false,
          "internalType": "uint256",
          "name": "tipAmount",
          "type": "uint256"
        },
        {
          "indexed": false,
          "internalType": "address payable",
          "name": "author",
          "type": "address"
        }
      ],
      "name": "UploadMusic",
      "type": "event"
    },
    {
      "constant": true,
      "inputs": [],
      "name": "musicCount",
      "outputs": [
        {
          "internalType": "uint256",
          "name": "",
          "type": "uint256"
        }
      ],
      "payable": false,
      "stateMutability": "view",
      "type": "function"
    },
    {
      "constant": false,
      "inputs": [
        {
          "internalType": "string",
          "name": "musicHash",
          "type": "string"
        },
        {
          "internalType": "string",
          "name": "artistName",
          "type": "string"
        },
        {
          "internalType": "string",
          "name": "songName",
          "type": "string"
        },
        {
          "internalType": "string",
          "name": "albumName",
          "type": "string"
        },
        {
          "internalType": "string",
          "name": "songLength",
          "type": "string"
        },
        {
          "internalType": "string",
          "name": "lyrics",
          "type": "string"
        },
        {
          "internalType": "string",
          "name": "genre",
          "type": "string"
        }
      ],
      "name": "addToBlockchain",
      "outputs": [],
      "payable": false,
      "stateMutability": "nonpayable",
      "type": "function"
    },
    {
      "constant": true,
      "inputs": [],
      "name": "getAllMusicRecords",
      "outputs": [
        {
          "components": [
            {
              "internalType": "uint256",
              "name": "id",
              "type": "uint256"
            },
            {
              "internalType": "string",
              "name": "musicHash",
              "type": "string"
            },
            {
              "internalType": "string",
              "name": "artistName",
              "type": "string"
            },
            {
              "internalType": "string",
              "name": "songName",
              "type": "string"
            },
            {
              "internalType": "string",
              "name": "albumName",
              "type": "string"
            },
            {
              "internalType": "uint256",
              "name": "releaseDate",
              "type": "uint256"
            },
            {
              "internalType": "string",
              "name": "songLength",
              "type": "string"
            },
            {
              "internalType": "string",
              "name": "lyrics",
              "type": "string"
            },
            {
              "internalType": "string",
              "name": "genre",
              "type": "string"
            },
            {
              "internalType": "uint256",
              "name": "tipAmount",
              "type": "uint256"
            },
            {
              "internalType": "address payable",
              "name": "author",
              "type": "address"
            }
          ],
          "internalType": "struct Music.MusicRecord[]",
          "name": "",
          "type": "tuple[]"
        }
      ],
      "payable": false,
      "stateMutability": "view",
      "type": "function"
    },
    {
      "constant": true,
      "inputs": [],
      "name": "getMusicCount",
      "outputs": [
        {
          "internalType": "uint256",
          "name": "",
          "type": "uint256"
        }
      ],
      "payable": false,
      "stateMutability": "view",
      "type": "function"
    }
  ],
  "bytecode": "0x60806040526000805534801561001457600080fd5b50610fa8806100246000396000f3fe608060405234801561001057600080fd5b506004361061004c5760003560e01c80630a6db76b14610051578063294f98b81461006d5780633d185f3f1461008b578063d888f3f4146100a9575b600080fd5b61006b6004803603610066919081019061093c565b6100c7565b005b6100756102f2565b6040516100829190610d03565b60405180910390f35b6100936102f8565b6040516100a09190610ce1565b60405180910390f35b6100b161083a565b6040516100be9190610d03565b60405180910390f35b60016000540160008190555060016040518061016001604052806000548152602001898152602001888152602001878152602001868152602001428152602001858152602001848152602001838152602001600081526020013373ffffffffffffffffffffffffffffffffffffffff168152509080600181540180825580915050906001820390600052602060002090600b02016000909192909190915060008201518160000155602082015181600101908051906020019061018b929190610843565b5060408201518160020190805190602001906101a8929190610843565b5060608201518160030190805190602001906101c5929190610843565b5060808201518160040190805190602001906101e2929190610843565b5060a0820151816005015560c0820151816006019080519060200190610209929190610843565b5060e0820151816007019080519060200190610226929190610843565b50610100820151816008019080519060200190610244929190610843565b50610120820151816009015561014082015181600a0160006101000a81548173ffffffffffffffffffffffffffffffffffffffff021916908373ffffffffffffffffffffffffffffffffffffffff1602179055505050507f39232a9c560adb56f8b4fac4898ec2be7fa998f4de8fdf99bd39892247c2b21b60005488888888428989896000336040516102e19b9a99989796959493929190610d1e565b60405180910390a150505050505050565b60005481565b60606001805480602002602001604051908101604052809291908181526020016000905b8282101561083157838290600052602060002090600b02016040518061016001604052908160008201548152602001600182018054600181600116156101000203166002900480601f0160208091040260200160405190810160405280929190818152602001828054600181600116156101000203166002900480156103e35780601f106103b8576101008083540402835291602001916103e3565b820191906000526020600020905b8154815290600101906020018083116103c657829003601f168201915b50505050508152602001600282018054600181600116156101000203166002900480601f0160208091040260200160405190810160405280929190818152602001828054600181600116156101000203166002900480156104855780601f1061045a57610100808354040283529160200191610485565b820191906000526020600020905b81548152906001019060200180831161046857829003601f168201915b50505050508152602001600382018054600181600116156101000203166002900480601f0160208091040260200160405190810160405280929190818152602001828054600181600116156101000203166002900480156105275780601f106104fc57610100808354040283529160200191610527565b820191906000526020600020905b81548152906001019060200180831161050a57829003601f168201915b50505050508152602001600482018054600181600116156101000203166002900480601f0160208091040260200160405190810160405280929190818152602001828054600181600116156101000203166002900480156105c95780601f1061059e576101008083540402835291602001916105c9565b820191906000526020600020905b8154815290600101906020018083116105ac57829003601f168201915b5050505050815260200160058201548152602001600682018054600181600116156101000203166002900480601f0160208091040260200160405190810160405280929190818152602001828054600181600116156101000203166002900480156106755780601f1061064a57610100808354040283529160200191610675565b820191906000526020600020905b81548152906001019060200180831161065857829003601f168201915b50505050508152602001600782018054600181600116156101000203166002900480601f0160208091040260200160405190810160405280929190818152602001828054600181600116156101000203166002900480156107175780601f106106ec57610100808354040283529160200191610717565b820191906000526020600020905b8154815290600101906020018083116106fa57829003601f168201915b50505050508152602001600882018054600181600116156101000203166002900480601f0160208091040260200160405190810160405280929190818152602001828054600181600116156101000203166002900480156107b95780601f1061078e576101008083540402835291602001916107b9565b820191906000526020600020905b81548152906001019060200180831161079c57829003601f168201915b5050505050815260200160098201548152602001600a820160009054906101000a900473ffffffffffffffffffffffffffffffffffffffff1673ffffffffffffffffffffffffffffffffffffffff1673ffffffffffffffffffffffffffffffffffffffff16815250508152602001906001019061031c565b50505050905090565b60008054905090565b828054600181600116156101000203166002900490600052602060002090601f016020900481019282601f1061088457805160ff19168380011785556108b2565b828001600101855582156108b2579182015b828111156108b1578251825591602001919060010190610896565b5b5090506108bf91906108c3565b5090565b6108e591905b808211156108e15760008160009055506001016108c9565b5090565b90565b600082601f8301126108f957600080fd5b813561090c61090782610e27565b610dfa565b9150808252602083016020830185838301111561092857600080fd5b610933838284610f12565b50505092915050565b600080600080600080600060e0888a03121561095757600080fd5b600088013567ffffffffffffffff81111561097157600080fd5b61097d8a828b016108e8565b975050602088013567ffffffffffffffff81111561099a57600080fd5b6109a68a828b016108e8565b965050604088013567ffffffffffffffff8111156109c357600080fd5b6109cf8a828b016108e8565b955050606088013567ffffffffffffffff8111156109ec57600080fd5b6109f88a828b016108e8565b945050608088013567ffffffffffffffff811115610a1557600080fd5b610a218a828b016108e8565b93505060a088013567ffffffffffffffff811115610a3e57600080fd5b610a4a8a828b016108e8565b92505060c088013567ffffffffffffffff811115610a6757600080fd5b610a738a828b016108e8565b91505092959891949750929550565b6000610a8e8383610baa565b905092915050565b610a9f81610ec4565b82525050565b610aae81610ec4565b82525050565b6000610abf82610e63565b610ac98185610e91565b935083602082028501610adb85610e53565b8060005b85811015610b175784840389528151610af88582610a82565b9450610b0383610e84565b925060208a01995050600181019050610adf565b50829750879550505050505092915050565b610b3281610f00565b82525050565b6000610b4382610e79565b610b4d8185610eb3565b9350610b5d818560208601610f21565b610b6681610f54565b840191505092915050565b6000610b7c82610e6e565b610b868185610ea2565b9350610b96818560208601610f21565b610b9f81610f54565b840191505092915050565b600061016083016000830151610bc36000860182610cc3565b5060208301518482036020860152610bdb8282610b71565b91505060408301518482036040860152610bf58282610b71565b91505060608301518482036060860152610c0f8282610b71565b91505060808301518482036080860152610c298282610b71565b91505060a0830151610c3e60a0860182610cc3565b5060c083015184820360c0860152610c568282610b71565b91505060e083015184820360e0860152610c708282610b71565b915050610100830151848203610100860152610c8c8282610b71565b915050610120830151610ca3610120860182610cc3565b50610140830151610cb8610140860182610a96565b508091505092915050565b610ccc81610ef6565b82525050565b610cdb81610ef6565b82525050565b60006020820190508181036000830152610cfb8184610ab4565b905092915050565b6000602082019050610d186000830184610cd2565b92915050565b600061016082019050610d34600083018e610cd2565b8181036020830152610d46818d610b38565b90508181036040830152610d5a818c610b38565b90508181036060830152610d6e818b610b38565b90508181036080830152610d82818a610b38565b9050610d9160a0830189610cd2565b81810360c0830152610da38188610b38565b905081810360e0830152610db78187610b38565b9050818103610100830152610dcc8186610b38565b9050610ddc610120830185610b29565b610dea610140830184610aa5565b9c9b505050505050505050505050565b6000604051905081810181811067ffffffffffffffff82111715610e1d57600080fd5b8060405250919050565b600067ffffffffffffffff821115610e3e57600080fd5b601f19601f8301169050602081019050919050565b6000819050602082019050919050565b600081519050919050565b600081519050919050565b600081519050919050565b6000602082019050919050565b600082825260208201905092915050565b600082825260208201905092915050565b600082825260208201905092915050565b6000610ecf82610ed6565b9050919050565b600073ffffffffffffffffffffffffffffffffffffffff82169050919050565b6000819050919050565b6000610f0b82610ef6565b9050919050565b82818337600083830152505050565b60005b83811015610f3f578082015181840152602081019050610f24565b83811115610f4e576000848401525b50505050565b6000601f19601f830116905091905056fea365627a7a72315820cfcf7a4a26a1c1fbe6bf11cac2cc03dfcd9a8cc19eacd3722e5669f4b8343d856c6578706572696d656e74616cf564736f6c63430005100040",
  "source": "pragma solidity ^0.5.0;\r\npragma experimental ABIEncoderV2;\r\ncontract Music {\r\n    uint256 public musicCount = 0;\r\n\r\n    MusicRecord[] musicRecords;\r\n\r\n    struct MusicRecord {\r\n        uint256 id;        \r\n        string musicHash;\r\n        string artistName;\r\n        string songName;\r\n        string albumName;\r\n        uint256 releaseDate;\r\n        string songLength;\r\n        string lyrics;\r\n        string genre;\r\n        uint256 tipAmount;\r\n        address payable author;\r\n\r\n    }\r\n\r\n    event UploadMusic(\r\n        uint256 id,\r\n        string musicHash,\r\n        string artistName,\r\n        string songName,\r\n        string albumName,\r\n        uint256 releaseDate,\r\n        string songLength,\r\n        string lyrics,\r\n        string genre,\r\n        uint256 tipAmount,\r\n        address payable author\r\n        \r\n    );\r\n\r\n    function addToBlockchain(string memory musicHash,string memory artistName,string memory songName,string memory albumName,string memory songLength,string memory lyrics,string memory genre) public{\r\n        musicCount = musicCount + 1;\r\n        musicRecords.push(MusicRecord(musicCount,musicHash,artistName,songName,albumName,block.timestamp,songLength,lyrics,genre,0,msg.sender));\r\n        emit UploadMusic(musicCount,musicHash,artistName,songName,albumName,block.timestamp,songLength,lyrics,genre,0,msg.sender);\r\n    }\r\n\r\n    function getAllMusicRecords() public view returns(MusicRecord[] memory){\r\n        //returns music records\r\n        return musicRecords;\r\n    }\r\n\r\n    function getMusicCount() public view returns(uint256) {\r\n        return musicCount;\r\n    }\r\n\r\n\r\n}",
  "sourcePath": "D:/manan/blockchain/decentragram/src/contracts/Music.sol",
  "compiler": {
    "name": "solc",
    "version": "0.5.16+commit.9c3226ce.Emscripten.clang"
  },
  "schemaVersion": "3.2.3",
  "updatedAt": "2022-03-26T12:33:24.265Z",
  "networkType": "ethereum",
  "devdoc": {
    "methods": {}
  },
  "userdoc": {
    "methods": {}
  }
}